{
  "contractName": "Faucet",
  "abi": [
    {
      "inputs": [],
      "name": "so_nguyen",
      "outputs": [
        {
          "internalType": "int256",
          "name": "",
          "type": "int256"
        }
      ],
      "stateMutability": "view",
      "type": "function",
      "constant": true
    },
    {
      "inputs": [],
      "name": "so_nguyen_duong",
      "outputs": [
        {
          "internalType": "uint256",
          "name": "",
          "type": "uint256"
        }
      ],
      "stateMutability": "view",
      "type": "function",
      "constant": true
    }
  ],
  "bytecode": "0x608060405263075bcd156000557ffffffffffffffffffffffffffffffffffffffffffffffffffffffffffffffaf560015534801561003c57600080fd5b5061010d8061004c6000396000f3fe6080604052348015600f57600080fd5b506004361060325760003560e01c80634167cc50146037578063a41758fb146051575b600080fd5b603d606b565b604051604891906091565b60405180910390f35b60576071565b6040516062919060aa565b60405180910390f35b60015481565b60005481565b607e8160c3565b82525050565b608b8160cd565b82525050565b600060208201905060a460008301846077565b92915050565b600060208201905060bd60008301846084565b92915050565b6000819050919050565b600081905091905056fea2646970667358221220af2b63a3a9691e0a3587f8072fc57c745fe0aa564e133ae15b853e24e3ef4dbb64736f6c63430008070033",
  "immutableReferences": {},
  "source": "// SPDX-License-Identifier: MIT\r\npragma solidity ^0.8.4;\r\n\r\ncontract Faucet {\r\n    uint public so_nguyen_duong = 123456789;\r\n    int public so_nguyen = -1291;\r\n    address private minter;\r\n\r\n\r\n}",
  "sourcePath": "D:\\Research\\blockchain\\truffle\\faucet\\contracts\\Faucet.sol",
  "compiler": {
    "name": "solc",
    "version": "0.8.7+commit.e28d00a7.Emscripten.clang"
  },
  "schemaVersion": "3.4.6",
  "updatedAt": "2022-03-28T05:39:43.921Z",
  "networkType": "ethereum",
  "devdoc": {
    "kind": "dev",
    "methods": {},
    "version": 1
  },
  "userdoc": {
    "kind": "user",
    "methods": {},
    "version": 1
  }
}