{
  "contractName": "Fund",
  "abi": [
    {
      "inputs": [],
      "stateMutability": "nonpayable",
      "type": "constructor"
    },
    {
      "anonymous": false,
      "inputs": [
        {
          "indexed": false,
          "internalType": "address",
          "name": "_address",
          "type": "address"
        },
        {
          "indexed": false,
          "internalType": "uint256",
          "name": "_money",
          "type": "uint256"
        },
        {
          "indexed": false,
          "internalType": "string",
          "name": "_content",
          "type": "string"
        }
      ],
      "name": "DepositEvent",
      "type": "event"
    },
    {
      "inputs": [],
      "name": "owner",
      "outputs": [
        {
          "internalType": "address",
          "name": "",
          "type": "address"
        }
      ],
      "stateMutability": "view",
      "type": "function",
      "constant": true
    },
    {
      "inputs": [
        {
          "internalType": "string",
          "name": "_content",
          "type": "string"
        }
      ],
      "name": "Deposit",
      "outputs": [],
      "stateMutability": "payable",
      "type": "function",
      "payable": true
    },
    {
      "inputs": [],
      "name": "Withdraw",
      "outputs": [],
      "stateMutability": "nonpayable",
      "type": "function"
    },
    {
      "inputs": [],
      "name": "getBalance",
      "outputs": [
        {
          "internalType": "uint256",
          "name": "",
          "type": "uint256"
        }
      ],
      "stateMutability": "view",
      "type": "function",
      "constant": true
    },
    {
      "inputs": [],
      "name": "counter",
      "outputs": [
        {
          "internalType": "uint256",
          "name": "",
          "type": "uint256"
        }
      ],
      "stateMutability": "view",
      "type": "function",
      "constant": true
    },
    {
      "inputs": [
        {
          "internalType": "uint256",
          "name": "index",
          "type": "uint256"
        }
      ],
      "name": "getDetail",
      "outputs": [
        {
          "internalType": "address",
          "name": "",
          "type": "address"
        },
        {
          "internalType": "uint256",
          "name": "",
          "type": "uint256"
        },
        {
          "internalType": "string",
          "name": "",
          "type": "string"
        }
      ],
      "stateMutability": "view",
      "type": "function",
      "constant": true
    }
  ],
  "bytecode": "0x608060405234801561001057600080fd5b50336000806101000a81548173ffffffffffffffffffffffffffffffffffffffff021916908373ffffffffffffffffffffffffffffffffffffffff160217905550610a17806100606000396000f3fe6080604052600436106100555760003560e01c806312065fe01461005a57806357ea89b61461008557806361bc221a1461009c57806380dfa405146100c75780638da5cb5b146100e35780639d66a9cd1461010e575b600080fd5b34801561006657600080fd5b5061006f61014d565b60405161007c919061075b565b60405180910390f35b34801561009157600080fd5b5061009a610155565b005b3480156100a857600080fd5b506100b1610216565b6040516100be919061075b565b60405180910390f35b6100e160048036038101906100dc91906105f2565b610223565b005b3480156100ef57600080fd5b506100f8610377565b60405161010591906106e2565b60405180910390f35b34801561011a57600080fd5b506101356004803603810190610130919061063b565b61039b565b604051610144939291906106fd565b60405180910390f35b600047905090565b60008054906101000a900473ffffffffffffffffffffffffffffffffffffffff1673ffffffffffffffffffffffffffffffffffffffff163373ffffffffffffffffffffffffffffffffffffffff16146101ad57600080fd5b60008054906101000a900473ffffffffffffffffffffffffffffffffffffffff1673ffffffffffffffffffffffffffffffffffffffff166108fc479081150290604051600060405180830381858888f19350505050158015610213573d6000803e3d6000fd5b50565b6000600180549050905090565b66038d7ea4c6800034101561026d576040517f08c379a00000000000000000000000000000000000000000000000000000000081526004016102649061073b565b60405180910390fd5b600160405180606001604052803373ffffffffffffffffffffffffffffffffffffffff16815260200134815260200183815250908060018154018082558091505060019003906000526020600020906003020160009091909190915060008201518160000160006101000a81548173ffffffffffffffffffffffffffffffffffffffff021916908373ffffffffffffffffffffffffffffffffffffffff1602179055506020820151816001015560408201518160020190805190602001906103369291906104ca565b5050507faa371f5b2093ab25484de4a9809e8776332231a9dd05dbc404bc3388e94292fc33348360405161036c939291906106fd565b60405180910390a150565b60008054906101000a900473ffffffffffffffffffffffffffffffffffffffff1681565b6000806060600184815481106103b4576103b36108f8565b5b906000526020600020906003020160000160009054906101000a900473ffffffffffffffffffffffffffffffffffffffff16600185815481106103fa576103f96108f8565b5b906000526020600020906003020160010154600186815481106104205761041f6108f8565b5b906000526020600020906003020160020180805461043d90610866565b80601f016020809104026020016040519081016040528092919081815260200182805461046990610866565b80156104b65780601f1061048b576101008083540402835291602001916104b6565b820191906000526020600020905b81548152906001019060200180831161049957829003601f168201915b505050505090509250925092509193909250565b8280546104d690610866565b90600052602060002090601f0160209004810192826104f8576000855561053f565b82601f1061051157805160ff191683800117855561053f565b8280016001018555821561053f579182015b8281111561053e578251825591602001919060010190610523565b5b50905061054c9190610550565b5090565b5b80821115610569576000816000905550600101610551565b5090565b600061058061057b8461079b565b610776565b90508281526020810184848401111561059c5761059b61095b565b5b6105a7848285610824565b509392505050565b600082601f8301126105c4576105c3610956565b5b81356105d484826020860161056d565b91505092915050565b6000813590506105ec816109ca565b92915050565b60006020828403121561060857610607610965565b5b600082013567ffffffffffffffff81111561062657610625610960565b5b610632848285016105af565b91505092915050565b60006020828403121561065157610650610965565b5b600061065f848285016105dd565b91505092915050565b610671816107e8565b82525050565b6000610682826107cc565b61068c81856107d7565b935061069c818560208601610833565b6106a58161096a565b840191505092915050565b60006106bd6026836107d7565b91506106c88261097b565b604082019050919050565b6106dc8161081a565b82525050565b60006020820190506106f76000830184610668565b92915050565b60006060820190506107126000830186610668565b61071f60208301856106d3565b81810360408301526107318184610677565b9050949350505050565b60006020820190508181036000830152610754816106b0565b9050919050565b600060208201905061077060008301846106d3565b92915050565b6000610780610791565b905061078c8282610898565b919050565b6000604051905090565b600067ffffffffffffffff8211156107b6576107b5610927565b5b6107bf8261096a565b9050602081019050919050565b600081519050919050565b600082825260208201905092915050565b60006107f3826107fa565b9050919050565b600073ffffffffffffffffffffffffffffffffffffffff82169050919050565b6000819050919050565b82818337600083830152505050565b60005b83811015610851578082015181840152602081019050610836565b83811115610860576000848401525b50505050565b6000600282049050600182168061087e57607f821691505b60208210811415610892576108916108c9565b5b50919050565b6108a18261096a565b810181811067ffffffffffffffff821117156108c0576108bf610927565b5b80604052505050565b7f4e487b7100000000000000000000000000000000000000000000000000000000600052602260045260246000fd5b7f4e487b7100000000000000000000000000000000000000000000000000000000600052603260045260246000fd5b7f4e487b7100000000000000000000000000000000000000000000000000000000600052604160045260246000fd5b600080fd5b600080fd5b600080fd5b600080fd5b6000601f19601f8301169050919050565b7f536f7272792c206d696e756d756d2076616c7565206d75737420626520302e3060008201527f303120424e420000000000000000000000000000000000000000000000000000602082015250565b6109d38161081a565b81146109de57600080fd5b5056fea2646970667358221220c2455bab9e4dc4caf7ef588c488ec86146ab2b4861e692e8511dab61335cb4c864736f6c63430008070033",
  "immutableReferences": {},
  "source": "// SPDX-License-Identifier: MIT\r\npragma solidity ^0.8.4;\r\n\r\ncontract Fund {\r\n    address public owner;\r\n    Member[] private members;\r\n\r\n    struct Member {\r\n        address _address;\r\n        uint _money;\r\n        string _content;\r\n    }\r\n\r\n    constructor() {\r\n        owner = msg.sender;\r\n    }\r\n\r\n    event DepositEvent(address _address, uint _money, string _content);\r\n\r\n    function Deposit(string memory _content) public payable {\r\n        require(msg.value >= (10**18 * 0.001), \"Sorry, minumum value must be 0.001 BNB\");\r\n        members.push(Member(msg.sender, msg.value, _content));\r\n\r\n        emit DepositEvent(msg.sender, msg.value, _content);\r\n    }\r\n\r\n    function Withdraw() public {\r\n        require(msg.sender == owner);\r\n        payable(owner).transfer(address(this).balance);\r\n    }\r\n\r\n    function getBalance() public view returns(uint) {\r\n        return address(this).balance;\r\n    }\r\n\r\n    function counter() public view returns (uint) {\r\n        return members.length;\r\n    }\r\n\r\n    function getDetail(uint index) public view returns (address, uint, string memory) {\r\n        return (\r\n            members[index]._address,\r\n            members[index]._money,\r\n            members[index]._content\r\n        );\r\n    }\r\n}",
  "sourcePath": "D:\\Research\\blockchain\\truffle\\faucet\\contracts\\Fund.sol",
  "compiler": {
    "name": "solc",
    "version": "0.8.7+commit.e28d00a7.Emscripten.clang"
  },
  "schemaVersion": "3.4.6",
  "updatedAt": "2022-03-28T05:39:45.712Z",
  "networkType": "ethereum",
  "devdoc": {
    "kind": "dev",
    "methods": {},
    "version": 1
  },
  "userdoc": {
    "kind": "user",
    "methods": {},
    "version": 1
  }
}