{
  "contractName": "Fund",
  "abi": [
    {
      "inputs": [],
      "stateMutability": "nonpayable",
      "type": "constructor"
    },
    {
      "inputs": [],
      "name": "owner",
      "outputs": [
        {
          "internalType": "address",
          "name": "",
          "type": "address"
        }
      ],
      "stateMutability": "view",
      "type": "function"
    },
    {
      "inputs": [
        {
          "internalType": "string",
          "name": "_content",
          "type": "string"
        }
      ],
      "name": "Deposit",
      "outputs": [],
      "stateMutability": "payable",
      "type": "function"
    },
    {
      "inputs": [],
      "name": "Withdraw",
      "outputs": [],
      "stateMutability": "nonpayable",
      "type": "function"
    },
    {
      "inputs": [],
      "name": "getBalance",
      "outputs": [
        {
          "internalType": "uint256",
          "name": "",
          "type": "uint256"
        }
      ],
      "stateMutability": "view",
      "type": "function"
    },
    {
      "inputs": [],
      "name": "counter",
      "outputs": [
        {
          "internalType": "uint256",
          "name": "",
          "type": "uint256"
        }
      ],
      "stateMutability": "view",
      "type": "function"
    },
    {
      "inputs": [
        {
          "internalType": "uint256",
          "name": "index",
          "type": "uint256"
        }
      ],
      "name": "getDetail",
      "outputs": [
        {
          "internalType": "address",
          "name": "",
          "type": "address"
        },
        {
          "internalType": "uint256",
          "name": "",
          "type": "uint256"
        },
        {
          "internalType": "string",
          "name": "",
          "type": "string"
        }
      ],
      "stateMutability": "view",
      "type": "function"
    }
  ],
  "bytecode": "0x608060405234801561001057600080fd5b50336000806101000a81548173ffffffffffffffffffffffffffffffffffffffff021916908373ffffffffffffffffffffffffffffffffffffffff1602179055506109dc806100606000396000f3fe6080604052600436106100555760003560e01c806312065fe01461005a57806357ea89b61461008557806361bc221a1461009c57806380dfa405146100c75780638da5cb5b146100e35780639d66a9cd1461010e575b600080fd5b34801561006657600080fd5b5061006f61014d565b60405161007c9190610720565b60405180910390f35b34801561009157600080fd5b5061009a610155565b005b3480156100a857600080fd5b506100b1610216565b6040516100be9190610720565b60405180910390f35b6100e160048036038101906100dc91906105b7565b610223565b005b3480156100ef57600080fd5b506100f861033c565b60405161010591906106a7565b60405180910390f35b34801561011a57600080fd5b5061013560048036038101906101309190610600565b610360565b604051610144939291906106c2565b60405180910390f35b600047905090565b60008054906101000a900473ffffffffffffffffffffffffffffffffffffffff1673ffffffffffffffffffffffffffffffffffffffff163373ffffffffffffffffffffffffffffffffffffffff16146101ad57600080fd5b60008054906101000a900473ffffffffffffffffffffffffffffffffffffffff1673ffffffffffffffffffffffffffffffffffffffff166108fc479081150290604051600060405180830381858888f19350505050158015610213573d6000803e3d6000fd5b50565b6000600180549050905090565b66038d7ea4c6800034101561026d576040517f08c379a000000000000000000000000000000000000000000000000000000000815260040161026490610700565b60405180910390fd5b600160405180606001604052803373ffffffffffffffffffffffffffffffffffffffff16815260200134815260200183815250908060018154018082558091505060019003906000526020600020906003020160009091909190915060008201518160000160006101000a81548173ffffffffffffffffffffffffffffffffffffffff021916908373ffffffffffffffffffffffffffffffffffffffff16021790555060208201518160010155604082015181600201908051906020019061033692919061048f565b50505050565b60008054906101000a900473ffffffffffffffffffffffffffffffffffffffff1681565b600080606060018481548110610379576103786108bd565b5b906000526020600020906003020160000160009054906101000a900473ffffffffffffffffffffffffffffffffffffffff16600185815481106103bf576103be6108bd565b5b906000526020600020906003020160010154600186815481106103e5576103e46108bd565b5b90600052602060002090600302016002018080546104029061082b565b80601f016020809104026020016040519081016040528092919081815260200182805461042e9061082b565b801561047b5780601f106104505761010080835404028352916020019161047b565b820191906000526020600020905b81548152906001019060200180831161045e57829003601f168201915b505050505090509250925092509193909250565b82805461049b9061082b565b90600052602060002090601f0160209004810192826104bd5760008555610504565b82601f106104d657805160ff1916838001178555610504565b82800160010185558215610504579182015b828111156105035782518255916020019190600101906104e8565b5b5090506105119190610515565b5090565b5b8082111561052e576000816000905550600101610516565b5090565b600061054561054084610760565b61073b565b90508281526020810184848401111561056157610560610920565b5b61056c8482856107e9565b509392505050565b600082601f8301126105895761058861091b565b5b8135610599848260208601610532565b91505092915050565b6000813590506105b18161098f565b92915050565b6000602082840312156105cd576105cc61092a565b5b600082013567ffffffffffffffff8111156105eb576105ea610925565b5b6105f784828501610574565b91505092915050565b6000602082840312156106165761061561092a565b5b6000610624848285016105a2565b91505092915050565b610636816107ad565b82525050565b600061064782610791565b610651818561079c565b93506106618185602086016107f8565b61066a8161092f565b840191505092915050565b600061068260268361079c565b915061068d82610940565b604082019050919050565b6106a1816107df565b82525050565b60006020820190506106bc600083018461062d565b92915050565b60006060820190506106d7600083018661062d565b6106e46020830185610698565b81810360408301526106f6818461063c565b9050949350505050565b6000602082019050818103600083015261071981610675565b9050919050565b60006020820190506107356000830184610698565b92915050565b6000610745610756565b9050610751828261085d565b919050565b6000604051905090565b600067ffffffffffffffff82111561077b5761077a6108ec565b5b6107848261092f565b9050602081019050919050565b600081519050919050565b600082825260208201905092915050565b60006107b8826107bf565b9050919050565b600073ffffffffffffffffffffffffffffffffffffffff82169050919050565b6000819050919050565b82818337600083830152505050565b60005b838110156108165780820151818401526020810190506107fb565b83811115610825576000848401525b50505050565b6000600282049050600182168061084357607f821691505b602082108114156108575761085661088e565b5b50919050565b6108668261092f565b810181811067ffffffffffffffff82111715610885576108846108ec565b5b80604052505050565b7f4e487b7100000000000000000000000000000000000000000000000000000000600052602260045260246000fd5b7f4e487b7100000000000000000000000000000000000000000000000000000000600052603260045260246000fd5b7f4e487b7100000000000000000000000000000000000000000000000000000000600052604160045260246000fd5b600080fd5b600080fd5b600080fd5b600080fd5b6000601f19601f8301169050919050565b7f536f7272792c206d696e756d756d2076616c7565206d75737420626520302e3060008201527f303120424e420000000000000000000000000000000000000000000000000000602082015250565b610998816107df565b81146109a357600080fd5b5056fea2646970667358221220673f282d19532e9f1d00e3dc020c1cd1d155bd22e0789b197e7b6625775aa05964736f6c63430008070033",
  "immutableReferences": {},
  "source": "// SPDX-License-Identifier: MIT\r\npragma solidity ^0.8.4;\r\n\r\ncontract Fund {\r\n    address public owner;\r\n    Member[] private members;\r\n\r\n    struct Member {\r\n        address _address;\r\n        uint _money;\r\n        string _content;\r\n    }\r\n\r\n    constructor() {\r\n        owner = msg.sender;\r\n    }\r\n\r\n    function Deposit(string memory _content) public payable {\r\n        require(msg.value >= (10**18 * 0.001), \"Sorry, minumum value must be 0.001 BNB\");\r\n        members.push(Member(msg.sender, msg.value, _content));\r\n    }\r\n\r\n    function Withdraw() public {\r\n        require(msg.sender == owner);\r\n        payable(owner).transfer(address(this).balance);\r\n    }\r\n\r\n    function getBalance() public view returns(uint) {\r\n        return address(this).balance;\r\n    }\r\n\r\n    function counter() public view returns (uint) {\r\n        return members.length;\r\n    }\r\n\r\n    function getDetail(uint index) public view returns (address, uint, string memory) {\r\n        return (\r\n            members[index]._address,\r\n            members[index]._money,\r\n            members[index]._content\r\n        );\r\n    }\r\n}",
  "sourcePath": "D:\\Research\\blockchain\\truffle\\faucet\\contracts\\Fund.sol",
  "compiler": {
    "name": "solc",
    "version": "0.8.7+commit.e28d00a7.Emscripten.clang"
  },
  "schemaVersion": "3.4.6",
  "updatedAt": "2022-03-28T03:31:17.497Z",
  "devdoc": {
    "kind": "dev",
    "methods": {},
    "version": 1
  },
  "userdoc": {
    "kind": "user",
    "methods": {},
    "version": 1
  }
}